:100000000C9434000C943E000C943E000C943E0082
:100010000C943E000C943E000C943E000C943E0068
:100020000C943E000C943E000C943E000C943E0058
:100030000C943E000C943E000C943E000C943E0048
:100040000C943E000C943E000C943E000C943E0038
:100050000C943E000C943E000C943E000C943E0028
:100060000C943E000C943E0011241FBECFEFD8E04C
:10007000DEBFCDBF0E9440000C9466000C940000CF
:1000800084B1806284B980E090E085309105D4F439
:1000900025B1206225B92FEF39E648E121503040E3
:1000A0004040E1F700C0000025B12F7D25B92FEFBA
:1000B00039E648E1215030404040E1F700C00000FF
:1000C0000196E3CF85B1806285B9FFCFF894FFCF69
:00000001FF
